{
  "contractName": "UserRole",
  "abi": [
    {
      "inputs": [],
      "payable": false,
      "stateMutability": "nonpayable",
      "type": "constructor"
    },
    {
      "anonymous": false,
      "inputs": [
        {
          "indexed": true,
          "internalType": "address",
          "name": "account",
          "type": "address"
        }
      ],
      "name": "UserAdded",
      "type": "event"
    },
    {
      "anonymous": false,
      "inputs": [
        {
          "indexed": true,
          "internalType": "address",
          "name": "account",
          "type": "address"
        }
      ],
      "name": "UserRemoved",
      "type": "event"
    },
    {
      "constant": true,
      "inputs": [
        {
          "internalType": "address",
          "name": "account",
          "type": "address"
        }
      ],
      "name": "isUser",
      "outputs": [
        {
          "internalType": "bool",
          "name": "",
          "type": "bool"
        }
      ],
      "payable": false,
      "stateMutability": "view",
      "type": "function"
    },
    {
      "constant": false,
      "inputs": [
        {
          "internalType": "address",
          "name": "account",
          "type": "address"
        }
      ],
      "name": "addUser",
      "outputs": [],
      "payable": false,
      "stateMutability": "nonpayable",
      "type": "function"
    },
    {
      "constant": false,
      "inputs": [],
      "name": "renounceUser",
      "outputs": [],
      "payable": false,
      "stateMutability": "nonpayable",
      "type": "function"
    }
  ],
  "bytecode": "0x608060405234801561001057600080fd5b506100203361002560201b60201c565b6101c4565b61003a60008261008060201b6102611760201c565b8073ffffffffffffffffffffffffffffffffffffffff167f19ef9a4877199f89440a26acb26895ec02ed86f2df1aeaa90dc18041b892f71f60405160405180910390a250565b600073ffffffffffffffffffffffffffffffffffffffff168173ffffffffffffffffffffffffffffffffffffffff1614156100ba57600080fd5b6100ca828261013260201b60201c565b156100d457600080fd5b60018260000160008373ffffffffffffffffffffffffffffffffffffffff1673ffffffffffffffffffffffffffffffffffffffff16815260200190815260200160002060006101000a81548160ff0219169083151502179055505050565b60008073ffffffffffffffffffffffffffffffffffffffff168273ffffffffffffffffffffffffffffffffffffffff16141561016d57600080fd5b8260000160008373ffffffffffffffffffffffffffffffffffffffff1673ffffffffffffffffffffffffffffffffffffffff16815260200190815260200160002060009054906101000a900460ff16905092915050565b6103ed806101d36000396000f3fe608060405234801561001057600080fd5b50600436106100415760003560e01c80634209fff114610046578063421b2d8b146100a2578063e5e93deb146100e6575b600080fd5b6100886004803603602081101561005c57600080fd5b81019080803573ffffffffffffffffffffffffffffffffffffffff1690602001909291905050506100f0565b604051808215151515815260200191505060405180910390f35b6100e4600480360360208110156100b857600080fd5b81019080803573ffffffffffffffffffffffffffffffffffffffff169060200190929190505050610104565b005b6100ee610122565b005b60006100fd60008361012d565b9050919050565b61010d336100f0565b61011657600080fd5b61011f816101bf565b50565b61012b33610210565b565b60008073ffffffffffffffffffffffffffffffffffffffff168273ffffffffffffffffffffffffffffffffffffffff16141561016857600080fd5b8260000160008373ffffffffffffffffffffffffffffffffffffffff1673ffffffffffffffffffffffffffffffffffffffff16815260200190815260200160002060009054906101000a900460ff16905092915050565b6101ca600082610261565b8073ffffffffffffffffffffffffffffffffffffffff167f19ef9a4877199f89440a26acb26895ec02ed86f2df1aeaa90dc18041b892f71f60405160405180910390a250565b61021b60008261030d565b8073ffffffffffffffffffffffffffffffffffffffff167fe9dce8c992623ce791725b21e857e33248d1f190a25b5168313420eebdaae99d60405160405180910390a250565b600073ffffffffffffffffffffffffffffffffffffffff168173ffffffffffffffffffffffffffffffffffffffff16141561029b57600080fd5b6102a5828261012d565b156102af57600080fd5b60018260000160008373ffffffffffffffffffffffffffffffffffffffff1673ffffffffffffffffffffffffffffffffffffffff16815260200190815260200160002060006101000a81548160ff0219169083151502179055505050565b600073ffffffffffffffffffffffffffffffffffffffff168173ffffffffffffffffffffffffffffffffffffffff16141561034757600080fd5b610351828261012d565b61035a57600080fd5b60008260000160008373ffffffffffffffffffffffffffffffffffffffff1673ffffffffffffffffffffffffffffffffffffffff16815260200190815260200160002060006101000a81548160ff021916908315150217905550505056fea265627a7a72315820890d924dd518ce1dbfe936e01fd285277aa00b74d3f2d7e343d6bcb9116e41ef64736f6c63430005100032",
  "source": "pragma solidity ^0.5.16;\r\n\r\n// Import the library 'Roles'\r\nimport \"./Roles.sol\";\r\n//import \"openzeppelin-solidity/contracts/access/Roles.sol\";\r\n\r\n// Define a contract 'UserRole' to manage this role - add, remove, check\r\ncontract UserRole {\r\n  using Roles for Roles.Role;\r\n\r\n  // Define 2 events, one for Adding, and other for Removing\r\n  event UserAdded(address indexed account);\r\n  event UserRemoved(address indexed account);\r\n\r\n  // Define a struct 'User' by inheriting from 'Roles' library, struct Role\r\n  Roles.Role private User;\r\n\r\n  // In the constructor make the address that deploys this contract the 1st patient\r\n  constructor() public {\r\n    _addUser(msg.sender);\r\n  }\r\n\r\n  // Define a modifier that checks to see if msg.sender has the appropriate role\r\n  modifier onlyUser() {\r\n    require(isUser(msg.sender));\r\n    _;\r\n  }\r\n\r\n  // Define a function 'isUser' to check this role\r\n  function isUser(address account) public view returns (bool) {\r\n    return Roles.has(User, account);\r\n  }\r\n\r\n  // Define a function 'addUser' that adds this role\r\n  function addUser(address account) public onlyUser {\r\n    _addUser(account);\r\n  }\r\n\r\n  // Define a function 'renounceUser' to renounce this role\r\n  function renounceUser() public {\r\n    _removeUser(msg.sender);\r\n  }\r\n\r\n  // Define an internal function '_addUser' to add this role, called by 'addUser'\r\n  function _addUser(address account) internal {\r\n    Roles.add(User, account);\r\n    emit UserAdded(account);\r\n  }\r\n\r\n  // Define an internal function '_removeUser' to remove this role, called by 'removeUser'\r\n  function _removeUser(address account) internal {\r\n    Roles.remove(User, account);\r\n    emit UserRemoved(account);\r\n  }\r\n}",
  "sourcePath": "F:/fakequipo/fakequipo/contracts/medicineaccess/UserRole.sol",
  "compiler": {
    "name": "solc",
    "version": "0.5.16+commit.9c3226ce.Emscripten.clang"
  },
  "schemaVersion": "3.3.4",
  "updatedAt": "2021-04-11T09:43:53.934Z",
  "networkType": "ethereum",
  "devdoc": {
    "methods": {}
  },
  "userdoc": {
    "methods": {}
  }
}